:100000000C9479010C94D5070C94AA070C947F07E3
:100010000C9454070C9429070C94FE060C94D306F8
:100020000C94A8060C94AA010C94AA010C94AA01A1
:100030000C94AA010C94AA010C94AA010C94AA0194
:100040000C94AA010C94AA010C94AA010C94AA0184
:100050000C94AA010C94AA010C94AA010C945E06BB
:100060000C94AA010C942A080C9400080C94AA0180
:100070000C94AA010C94AA010C94AA010C94AA0154
:100080000C94AA010C94AA010C94AA010C94AA0144
:100090000C94AA010C94AA010C94AA010C94AA0134
:1000A0000C94AA010C94AA010C94AA010C94AA0124
:1000B0000C94AA010C94AA010C94AA010C94AA0114
:1000C0000C94AA010C94AA010C94AA010C94AA0104
:1000D0000C94AA010C94AA010C94AA010C94AA01F4
:1000E0000C94AA010C94AF030C94A0030C94FE0290
:1000F0000C942C030C9418030C94DC010C940E0348
:100100000C9472030C94F4020C94560C0C94E604B8
:100110000C94FE0A0C94D1030C94D4010C945C0A48
:100120000C940A020C94350B0C9463030C943B035F
:100130000C94A30B0C9459030C94510C0C94E501F2
:100140000C94EA020C945B0C0C94D8010C94DC0B1C
:100150000C94DF010C94D0010C94DB020C94560437
:100160000C940B020C94130C0C946E0B0C94CA019F
:100170000C9409040C94E9010C94D3020C944F03E1
:100180000C94BC040C9401020C94F7010C94E20949
:100190000C946D030C944C0C0C9473030C94450359
:1001A0000C94E0020C94F3010C94FD010C94C30335
:1001B0000C9422030C940F020C94A7040C94EF01EE
:1001C0000C9406030C9405020C94220A0C94D1049E
:1001D00000002100240027002A002D0030003300F9
:1001E00001010000040107010A01000022002500AE
:1001F00028002B002E003100340002010000050110
:1002000008010B01000020002300260029002C001B
:100210002F0032000001000003010601090105055D
:100220000505070508080808020202020A0A08086C
:10023000040404040101010101010101030303039A
:1002400003030303040707070C0C0C0C0C0C0C0C29
:100250000202020206060606060606060B0B0B0B3A
:100260000B0B0B0B0102102020080810204010205F
:10027000408002010201080402010102040810206A
:100280004080804020100804020180040201804068
:1002900020100804020108040201010204081020D1
:1002A0004080010204081020408000000A0B02096F
:1002B0000C0D0E0807030401000000000000000000
:1002C000000000000000000000000000000000002E
:1002D00000000000000012111000000000000000EB
:1002E000000000000000000000000000000000000E
:1002F0005B0C11241FBECFEFD1E2DEBFCDBF00E00B
:100300000CBF12E0A0E0B2E0E0EEFDE100E00BBFC8
:1003100002C007900D92AE3AB107D9F723E0AEEADA
:10032000B2E001C01D92A036B207E1F711E0C9E7C3
:10033000D1E000E006C021970109802FFE010E9454
:10034000E60EC837D10780E00807A9F70E946008C9
:100350000C94EE0E0C9400008150823108F05AC0CB
:10036000E82FF0E08827E854FE4F8F4F0C94E60EFC
:10037000D801DC01CA01D001D4010A02DF01E50184
:10038000E901EF01F301F701FD0101020A02050293
:100390000B020F02809180008F7780938000089578
:1003A000809180008F7DF9CF80918000877FF5CF8D
:1003B00084B58F7784BD089584B58F7DFBCF809100
:1003C000B0008F778093B00008958091B0008F7D4A
:1003D000F9CF809190008F7780939000089580915D
:1003E00090008F7DF9CF80919000877FF5CF80912D
:1003F000A0008F778093A00008958091A0008F7D4A
:10040000F9CF8091A000877FF5CF809120018F7771
:10041000809320010895809120018F7DF9CF8091F4
:100420002001877FF5CFCF93DF93282F30E0F901AC
:10043000E655FD4F8491F901EC59FD4FD491F90136
:10044000E25EFD4FC491CC23A1F081110E94AC016A
:10045000EC2FF0E0EE0FFF1FEC5FFD4FA591B49184
:10046000EC91ED2381E090E009F480E0DF91CF9101
:10047000089580E090E0FACF1F93CF93DF93282F69
:1004800030E0F901E655FD4F8491F901EC59FD4F3B
:10049000D491F901E25EFD4FC491CC23A9F0162F4F
:1004A00081110E94AC01EC2FF0E0EE0FFF1FE6512E
:1004B000FE4FA591B4918FB7F894EC91111108C03B
:1004C000D095DE23DC938FBFDF91CF911F910895EC
:1004D000DE2BF8CFCF93DF9390E0FC01EC59FD4F7A
:1004E0002491825E9D4FFC0184918823D1F090E09D
:1004F000880F991FFC01E053FE4FA591B491FC01B8
:10050000E651FE4FC591D49161110EC09FB7F8948A
:100510008C91E22FE0958E238C932881E223E8834F
:100520009FBFDF91CF9108958FB7F894EC91E22BA4
:10053000EC938FBFF6CF1F93CF93DF93182FEB0170
:1005400061E00E946A02209739F460E0812FDF9118
:10055000CF911F910C943C02CF3FD10511F461E083
:10056000F5CFE12FF0E0E655FD4FE491E150E231A7
:1005700008F0B3C0F0E08827EF53FD4F8F4F0C9485
:10058000E60ED302DB02E002EA02F4026D03FE0291
:1005900006030E03180322032C033B0345036D03DC
:1005A0004F035903630384B5806884BDC7BDDF91E1
:1005B000CF911F91089584B5806284BDC8BDF7CFE7
:1005C00080918000806880938000D0938900C093E0
:1005D0008800EDCF80918000806280938000D0936E
:1005E0008B00C0938A00E3CF809180008860809365
:1005F0008000D0938D00C0938C00D9CF8091B00043
:1006000080688093B000C093B300D1CF8091B000D8
:1006100080628093B000C093B400C9CF80919000F5
:10062000806880939000D0939900C0939800BFCFCA
:1006300080919000806280939000D0939B00C09343
:100640009A00B5CF80919000886080939000D093FD
:100650009D00C0939C00ABCF8091A00080688093E8
:10066000A0008091A0008F7B8093A000D093A90070
:10067000C093A8009CCF8091A00080628093A000CE
:10068000D093AB00C093AA0092CF8091A000886065
:100690008093A000D093AD00C093AC0088CF809130
:1006A0002001806880932001D0932901C093280104
:1006B0007ECF80912001806280932001D0932B0116
:1006C000C0932A0174CF809120018860809320011B
:1006D000D0932D01C0932C016ACFC038D1050CF006
:1006E0003ECF33CF0895AF92BF92CF92DF92EF9279
:1006F000FF920F931F93CF93DF936C017B018B01CC
:10070000040F151FEB015E01AE18BF08C017D1071B
:1007100059F06991D601ED91FC910190F081E02DA5
:10072000C6011995892B79F7C501DF91CF911F91EA
:100730000F91FF90EF90DF90CF90BF90AF90089512
:10074000FC01538D448D252F30E0842F90E0821BD7
:10075000930B541710F0CF96089501970895FC015C
:10076000918D828D981761F0A28DAE0FBF2FB11DB4
:100770005D968C91928D9F5F9F73928F90E008950C
:100780008FEF9FEF0895FC01918D828D981731F0C6
:10079000828DE80FF11D858D90E008958FEF9FEF1A
:1007A0000895FC01918D228D892F90E0805C9F4FF0
:1007B000821B91098F739927089583EC92E00E9420
:1007C000D10321E0892B09F420E0822F0895FC0158
:1007D000A48DA80FB92FB11DA35ABF4F2C91848DA2
:1007E00090E001968F739927848FA689B7892C93FF
:1007F000A089B1898C91837080648C93938D848D52
:10080000981306C00288F389E02D80818F7D808354
:100810000895EF92FF920F931F93CF93DF93EC0114
:1008200081E0888F9B8D8C8D98131AC0E889F98997
:10083000808185FF15C09FB7F894EE89FF8960839A
:10084000E889F98980818370806480839FBF81E01B
:1008500090E0DF91CF911F910F91FF90EF9008955D
:10086000F62E0B8D10E00F5F1F4F0F731127E02E38
:100870008C8D8E110CC00FB607FCFACFE889F98970
:10088000808185FFF5CFCE010E94E703F1CFEB8D8C
:10089000EC0FFD2FF11DE35AFF4FF0829FB7F89444
:1008A0000B8FEA89FB8980818062CFCFCF93DF9362
:1008B000EC01888D8823B9F0AA89BB89E889F98978
:1008C0008C9185FD03C0808186FD0DC00FB607FCAD
:1008D000F7CF8C9185FFF2CF808185FFEDCFCE01E0
:1008E0000E94E703E9CFDF91CF91089580E090E087
:1008F000892B29F00E94DD0381110E94000080E015
:1009000090E0892B49F080E090E0892B29F00E944B
:10091000000081110E94000080E090E0892B49F0E6
:1009200080E090E0892B29F00E94000081110E9454
:10093000000080E090E0892B49F080E090E0892B76
:1009400029F00E94000081110C940000089587E1B5
:100950000E941302019751F48091AE029091AF0270
:1009600001969093AF028093AE0208958091AE02FB
:100970009091AF020197F5CF81E30E941302019796
:1009800051F48091B0029091B10201969093B1021E
:100990008093B00208958091B0029091B1020197C6
:1009A000F5CF84E20E941302019751F48091B202C4
:1009B0009091B30201969093B3028093B20208958E
:1009C0008091B2029091B3020197F5CF8FE10E941E
:1009D0001302019751F48091B4029091B5020196EF
:1009E0009093B5028093B40208958091B4029091DF
:1009F000B5020197F5CF60E082E20E943C0260E020
:100A000083E20E943C0270E060E08CE00E949B0266
:100A100060E085E20E943C0260E084E20E943C02C9
:100A200070E060E088E00E949B0260E08BE20E9440
:100A30003C0260E08AE20E943C0270E060E086E0F6
:100A40000E949B0260E08AE30E943C0260E08BE32C
:100A50000E943C0270E060E085E00C949B02FC0187
:100A600001900020E9F73197AF01481B590BBC01F9
:100A700083EC92E00C9473038F929F92AF92BF929B
:100A80000F931F93CF93DF93CDB7DEB7A1970FB628
:100A9000F894DEBF0FBECDBF19A2423008F44AE081
:100AA0008E010F5D1F4F842E912CB12CA12CA5011E
:100AB00094010E94C40EE62FB901CA01EA30F4F491
:100AC000E05DD801EE938D01232B242B252B79F7A4
:100AD00090E080E0109719F0CD010E942F05A196BB
:100AE0000FB6F894DEBF0FBECDBFDF91CF911F913F
:100AF0000F91BF90AF909F908F900895E95CE1CFE8
:100B00000C942F054F925F926F927F928F929F92DB
:100B1000AF92BF92CF92DF92EF92FF920F931F930B
:100B2000CF936B017C01742EAC019B010E94BF0E20
:100B3000882399F084E292E0CF911F910F91FF906A
:100B4000EF90DF90CF90BF90AF909F908F907F906D
:100B50006F905F904F900C942F0546015701E894D9
:100B6000B7F82FEF3FEF4FE75FE7C501B4010E94F1
:100B7000BF0E81110DC02FEF3FEF4FE75FE7C501BB
:100B8000B4010E94F50C18161CF488E292E0D4CF50
:100B90002FEF3FEF4FE75FE4C701B6010E944D0E14
:100BA00018161CF48CE292E0C7CF2FEF3FEF4FE70F
:100BB0005FECC701B6010E94F50C87FDF3CF20E082
:100BC00030E0A901C701B6010E94F50C10E000E079
:100BD00087FF0AC06DE283EC92E00E9409048C0159
:100BE000F7FAF094F7F8F094C0E060E070E080E08D
:100BF0009FE37C1641F020E030E040E251E40E94A7
:100C0000FA0CCF5FF6CFA70196010E94890C2B0149
:100C10003C010E946C0D4B015C014AE00E943C05C6
:100C20007C01E00EF11ECC23C1F1C501B4010E948C
:100C30009B0D9B01AC01C301B2010E94880C4B01CA
:100C40005C016EE283EC92E00E940904E80EF91E5A
:100C5000C15018F120E030E040E251E4C501B40198
:100C60000E94520E2B013C010E946C0D4B01B12CD5
:100C7000A12C4AE0C501B4010E943C05E80EF91E12
:100C8000C501B4010E949B0D9B01AC01C301B201DF
:100C90000E94880C4B015C01DBCFC701CF911F91F3
:100CA0000F91FF90EF90DF90CF90BF90AF909F900B
:100CB0008F907F906F905F904F9008951F920F924A
:100CC0000FB60F9211242F933F938F939F93AF935F
:100CD000BF938091BF029091C002A091C102B091D8
:100CE000C2023091BE0223E0230F2D3758F5019642
:100CF000A11DB11D2093BE028093BF029093C0023C
:100D0000A093C102B093C2028091BA029091BB023B
:100D1000A091BC02B091BD020196A11DB11D8093AE
:100D2000BA029093BB02A093BC02B093BD02BF91E4
:100D3000AF919F918F913F912F910F900FBE0F9088
:100D40001F90189526E8230F0296A11DB11DD2CF42
:100D50001F920F920FB60F9211240BB60F922F9382
:100D60003F934F935F936F937F938F939F93AF9333
:100D7000BF93EF93FF93E0910E02F0910F0219954C
:100D8000FF91EF91BF91AF919F918F917F916F9163
:100D90005F914F913F912F910F900BBE0F900FBE1F
:100DA0000F901F9018951F920F920FB60F9211245B
:100DB0000BB60F922F933F934F935F936F937F9355
:100DC0008F939F93AF93BF93EF93FF93E0910C02A8
:100DD000F0910D021995FF91EF91BF91AF919F9105
:100DE0008F917F916F915F914F913F912F910F90D4
:100DF0000BBE0F900FBE0F901F9018951F920F9271
:100E00000FB60F9211240BB60F922F933F934F936F
:100E10005F936F937F938F939F93AF93BF93EF9362
:100E2000FF93E0910202F09103021995FF91EF9177
:100E3000BF91AF919F918F917F916F915F914F91F2
:100E40003F912F910F900BBE0F900FBE0F901F90F0
:100E500018951F920F920FB60F9211240BB60F9296
:100E60002F933F934F935F936F937F938F939F93B2
:100E7000AF93BF93EF93FF93E0910002F0910102D3
:100E80001995FF91EF91BF91AF919F918F917F91B4
:100E90006F915F914F913F912F910F900BBE0F90EB
:100EA0000FBE0F901F9018951F920F920FB60F92C2
:100EB00011240BB60F922F933F934F935F936F9331
:100EC0007F938F939F93AF93BF93EF93FF93E091A3
:100ED0000A02F0910B021995FF91EF91BF91AF912A
:100EE0009F918F917F916F915F914F913F912F9142
:100EF0000F900BBE0F900FBE0F901F9018951F9272
:100F00000F920FB60F9211240BB60F922F933F93AF
:100F10004F935F936F937F938F939F93AF93BF9301
:100F2000EF93FF93E0910802F09109021995FF9168
:100F3000EF91BF91AF919F918F917F916F915F9151
:100F40004F913F912F910F900BBE0F900FBE0F90BE
:100F50001F9018951F920F920FB60F9211240BB687
:100F60000F922F933F934F935F936F937F938F9342
:100F70009F93AF93BF93EF93FF93E0910602F0919D
:100F800007021995FF91EF91BF91AF919F918F91BA
:100F90007F916F915F914F913F912F910F900BBE79
:100FA0000F900FBE0F901F9018951F920F920FB6C3
:100FB0000F9211240BB60F922F933F934F935F9391
:100FC0006F937F938F939F93AF93BF93EF93FF9311
:100FD000E0910402F09105021995FF91EF91BF9104
:100FE000AF919F918F917F916F915F914F913F91C1
:100FF0002F910F900BBE0F900FBE0F901F90189562
:101000001F920F920FB60F9211240BB60F922F93CF
:101010003F934F935F936F937F938F939F93AF9380
:10102000BF93EF93FF9383EC92E00E94E703FF915D
:10103000EF91BF91AF919F918F917F916F915F9150
:101040004F913F912F910F900BBE0F900FBE0F90BD
:101050001F9018951F920F920FB60F9211240BB686
:101060000F922F938F939F93EF93FF93E091D3026F
:10107000F091D4028081E091D902F091DA0282FDF0
:101080001DC090818091DC028F5F8F732091DD0203
:10109000821741F0E091DC02F0E0ED53FD4F958FB7
:1010A0008093DC02FF91EF919F918F912F910F9090
:1010B0000BBE0F900FBE0F901F9018958081F2CF3E
:1010C000789484B5826084BD84B5816084BD85B523
:1010D000826085BD85B5816085BD80916E0081602F
:1010E00080936E00109281008091810082608093D5
:1010F00081008091810081608093810080918000D7
:101100008160809380008091B10084608093B10001
:101110008091B00081608093B000809191008260E6
:1011200080939100809191008160809391008091E3
:1011300090008160809390008091A10082608093F4
:10114000A1008091A10081608093A1008091A00006
:1011500081608093A00080912101826080932101B1
:101160008091210181608093210180912001816023
:101170008093200180917A00846080937A0080912E
:101180007A00826080937A0080917A0081608093F7
:101190007A0080917A00806880937A001092C10072
:1011A000E091D302F091D40282E08083E091CF02FB
:1011B000F091D0021082E091D102F091D2028FEC36
:1011C00080831092DB02E091D702F091D80286E092
:1011D0008083E091D502F091D60280818061808386
:1011E000E091D502F091D602808188608083E09101
:1011F000D502F091D602808180688083E091D5028B
:10120000F091D60280818F7D808361E08CE00E9426
:101210006A0261E082E20E946A0261E083E20E9467
:101220006A0261E088E00E946A0261E085E20E9451
:101230006A0261E084E20E946A0261E086E00E9444
:101240006A0261E08BE20E946A0261E08AE20E9427
:101250006A0261E085E00E946A0261E08AE30E941E
:101260006A0261E08BE30E946A0260E082E10E9410
:101270006A0260E08FE10E946A0260E083E10E94FE
:101280006A0260E084E20E946A0260E083E00E94F9
:101290006A0260E081E30E946A0260E082E00E94EC
:1012A0006A0260E087E10E946A0286EE94E0909311
:1012B0000B0280930A0280916900806C8093690020
:1012C000EB9A81ED94E0909309028093080280915B
:1012D0006900806380936900EA9A8CEB94E09093B4
:1012E00003028093020280916A008C6080936A00FE
:1012F000ED9A87EA94E09093010280930002809136
:101300006A00836080936A00EC9A1092B502109292
:10131000B4021092B3021092B2021092B102109273
:10132000B0021092AF021092AE022FB7F8948091E3
:10133000BF029091C002A091C102B091C2022FBF22
:101340008093B6029093B702A093B802B093B9020B
:101350000E94FB0484E6882E912C96E9A92EB12CDC
:1013600083EC92E00E94D103892B09F4A5C083ECA1
:1013700092E00E94AF0381548A3108F09DC0E82FAB
:10138000880FFF0B8827E853F64F8F4F0C94E60E1B
:10139000E209220AFE0A350B6E0BA30BDC0B130CC1
:1013A0005C0A5C0A5C0A510C560C5C0A5C0A5C0A1A
:1013B0005C0A5C0A5C0A5C0A5C0A5C0A5C0A5C0AFD
:1013C0005C0A4C0C60E082E20E943C0261E083E235
:1013D0000E943C02C0911002D0911102BE018CE02B
:1013E0000E949B0261E085E20E943C0260E084E290
:1013F0000E943C02BE0188E00E949B0260E08BE2FA
:101400000E943C0261E08AE20E943C02BE0186E04A
:101410000E949B0261E08AE30E943C0260E08BE351
:101420000E943C02BE0185E00E949B022FEF39E63C
:1014300048E1215030404040E1F700C0000080E327
:1014400092E038C060E082E20E943C0261E083E208
:101450000E943C02C0911002D0911102BE018CE0AA
:101460000E949B0260E085E20E943C0260E084E210
:101470000E943C0270E060E088E00E949B0260E015
:101480008BE20E943C0260E08AE20E943C0270E033
:1014900060E086E00E949B0261E08AE30E943C02D9
:1014A00060E08BE30E943C02BE0185E00E949B024B
:1014B00087E392E00E9480058FB7F8944090BF02C6
:1014C0005090C0026090C1027090C2028FBF8091A4
:1014D000B6029091B702A091B802B091B902A301EF
:1014E0009201281B390B4A0B5B0BDA01C9018C32C4
:1014F0009140A105B10508F47EC0F894C090B402F3
:10150000D090B502E090B202F090B3020091B00228
:101510001091B102C091AE02D091AF021092B5020B
:101520001092B4021092B3021092B2021092B10261
:101530001092B0021092AF021092AE02789482E83C
:1015400092E00E948005B601DD0C880B990B0E9489
:101550009D0D20E030E040EA50E40E94FA0C42E0A9
:101560000E9482058DE892E00E948005B701FF0C81
:10157000880B990B0E949D0D20E030E040EA50E47A
:101580000E94FA0C42E00E94820588E992E00E94E3
:101590008005B801110F880B990B0E949D0D20E06A
:1015A00030E040EA50E40E94FA0C42E00E948205DA
:1015B00083EA92E00E948005BE01DD0F880B990B43
:1015C0000E949D0D20E030E040EA50E40E94FA0CB9
:1015D00042E00E9482058BE892E00E942F0584E39E
:1015E00092E00E942F054092B6025092B70260929C
:1015F000B8027092B9020E947604B2CE60E082E234
:101600000E943C0261E083E20E943C02C091100211
:10161000D0911102BE018CE00E949B0260E085E245
:101620000E943C0261E084E20E943C02BE0188E02C
:101630000E949B0261E08BE20E943C0260E08AE231
:101640000E943C02BE0186E00E949B0261E08AE3A8
:101650000E943C0260E08BE30E943C02BE0185E0F8
:101660000E949B0283E492E025CF60E082E20E9428
:101670003C0260E083E20E943C0270E060E08CE0AB
:101680000E949B0260E085E20E943C0261E084E2ED
:101690000E943C02C0911002D0911102BE0188E06C
:1016A0000E949B0261E08BE20E943C0260E08AE2C1
:1016B0000E943C02BE0186E00E949B0260E08AE339
:1016C0000E943C0260E08BE30E943C0270E060E01C
:1016D00085E00E949B028CE492E0ECCE61E082E225
:1016E0000E943C0260E083E20E943C02C091100232
:1016F000D0911102BE018CE00E949B0260E085E265
:101700000E943C0261E084E20E943C02BE0188E04B
:101710000E949B0261E08BE20E943C0260E08AE250
:101720000E943C02BE0186E00E949B0260E08AE3C8
:101730000E943C0261E08BE30E943C02BE0185E016
:101740000E949B027CCE61E082E20E943C0260E04B
:1017500083E20E943C02C0911002D0911102BE01AE
:101760008CE00E949B0260E085E20E943C0260E007
:1017700084E20E943C0270E060E088E00E949B02EC
:1017800060E08BE20E943C0260E08AE20E943C0240
:1017900070E060E086E00E949B0260E08AE30E94C5
:1017A0003C0261E08BE30E943C02BE0185E00E94A6
:1017B0009B028AE592E07ECE61E082E20E943C02DA
:1017C00060E083E20E943C02C0911002D0911102BD
:1017D000BE018CE00E949B0261E085E20E943C0217
:1017E00060E084E20E943C02BE0188E00E949B020D
:1017F00060E08BE20E943C0261E08AE20E943C02CF
:10180000BE0186E00E949B0260E08AE30E943C02E7
:1018100061E08BE30E943C02BE0185E00E949B02D6
:1018200087E692E047CE60E082E20E943C0260E000
:1018300083E20E943C0270E060E08CE00E949B0228
:1018400061E085E20E943C0260E084E20E943C028A
:10185000C0911002D0911102BE0188E00E949B024B
:1018600060E08BE20E943C0261E08AE20E943C025E
:10187000BE0186E00E949B0260E08AE30E943C0277
:1018800060E08BE30E943C0270E060E085E00E9433
:101890009B028FE692E00ECE0E94FB048AE792E064
:1018A00009CEB0921102A092100206CE90921102BF
:1018B0008092100201CEE3ECF2E01382128288EEF5
:1018C00093E0A0E0B0E084839583A683B78386E1AC
:1018D00092E09183808385EC90E09587848784EC07
:1018E00090E09787868780EC90E0918B808B81ECED
:1018F00090E0938B828B82EC90E0958B848B86ECCE
:1019000090E0978B868B118E128E138E148E089515
:101910005058BB27AA270E94A00C0C94130E0E94BB
:10192000050E38F00E940C0E20F039F49F3F19F498
:1019300026F40C94020E0EF4E095E7FB0C94FC0DDB
:10194000E92F0E94240E58F3BA1762077307840721
:10195000950720F079F4A6F50C94460E0EF4E09568
:101960000B2EBA2FA02D0B01B90190010C01CA0159
:10197000A0011124FF27591B99F0593F50F4503E04
:1019800068F11A16F040A22F232F342F4427585FF6
:10199000F3CF469537952795A795F0405395C9F70E
:1019A0007EF41F16BA0B620B730B840BBAF09150C6
:1019B000A1F0FF0FBB1F661F771F881FC2F70EC065
:1019C000BA0F621F731F841F48F487957795679538
:1019D000B795F7959E3F08F0B0CF9395880F08F024
:1019E0009927EE0F9795879508950E94D80D08F4D2
:1019F00081E008950E940E0D0C94130E0E940C0EAF
:101A000058F00E94050E40F029F45F3F29F00C9435
:101A1000FC0D51110C94470E0C94020E0E94240EE2
:101A200068F39923B1F3552391F3951B550BBB270D
:101A3000AA2762177307840738F09F5F5F4F220F52
:101A4000331F441FAA1FA9F335D00E2E3AF0E0E849
:101A500032D091505040E695001CCAF72BD0FE2F93
:101A600029D0660F771F881FBB1F26173707480727
:101A7000AB07B0E809F0BB0B802DBF01FF279358DF
:101A80005F4F3AF09E3F510578F00C94FC0D0C949A
:101A9000470E5F3FE4F3983ED4F3869577956795BC
:101AA000B795F7959F5FC9F7880F911D9695879514
:101AB00097F90895E1E0660F771F881FBB1F621733
:101AC00073078407BA0720F0621B730B840BBA0BF1
:101AD000EE1F88F7E09508950E942C0E88F09F571E
:101AE00098F0B92F9927B751B0F0E1F0660F771F42
:101AF000881F991F1AF0BA95C9F714C0B13091F038
:101B00000E94460EB1E008950C94460E672F782F80
:101B10008827B85F39F0B93FCCF3869577956795FC
:101B2000B395D9F73EF490958095709561957F4F68
:101B30008F4F9F4F0895E89409C097FB3EF490950E
:101B40008095709561957F4F8F4F9F4F9923A9F096
:101B5000F92F96E9BB279395F69587957795679525
:101B6000B795F111F8CFFAF4BB0F11F460FF1BC069
:101B70006F5F7F4F8F4F9F4F16C0882311F096E9FC
:101B800011C0772321F09EE8872F762F05C06623AA
:101B900071F096E8862F70E060E02AF09A95660F63
:101BA000771F881FDAF7880F9695879597F908951C
:101BB000990F0008550FAA0BE0E8FEEF161617065E
:101BC000E807F907C0F012161306E407F50798F0C6
:101BD000621B730B840B950B39F40A2661F0232BDF
:101BE000242B252B21F408950A2609F4A140A6955B
:101BF0008FEF811D811D089597F99F6780E870E040
:101C000060E008959FEF80EC089500240A94161672
:101C1000170618060906089500240A9412161306DA
:101C2000140605060895092E0394000C11F4882368
:101C300052F0BB0F40F4BF2B11F460FF04C06F5F84
:101C40007F4F8F4F9F4F089557FD9058440F551F5A
:101C500059F05F3F71F04795880F97FB991F61F02E
:101C60009F3F79F087950895121613061406551FA5
:101C7000F2CF4695F1DF08C0161617061806991F11
:101C8000F1CF86957105610508940895E894BB2706
:101C900066277727CB0197F908950E94D80D08F49D
:101CA0008FEF08950E94650E0C94130E0E94050E8E
:101CB00038F00E940C0E20F0952311F00C94FC0DCE
:101CC0000C94020E11240C94470E0E94240E70F303
:101CD000959FC1F3950F50E0551F629FF001729FD1
:101CE000BB27F00DB11D639FAA27F00DB11DAA1FE0
:101CF000649F6627B00DA11D661F829F2227B00D2D
:101D0000A11D621F739FB00DA11D621F839FA00DB7
:101D1000611D221F749F3327A00D611D231F849F07
:101D2000600D211D822F762F6A2F11249F5750405E
:101D30009AF0F1F088234AF0EE0FFF1FBB1F661FD9
:101D4000771F881F91505040A9F79E3F510580F0A2
:101D50000C94FC0D0C94470E5F3FE4F3983ED4F3D3
:101D6000869577956795B795F795E7959F5FC1F746
:101D7000FE2B880F911D9695879597F908950E94DF
:101D8000D80D880B990B0895A1E21A2EAA1BBB1B34
:101D9000FD010DC0AA1FBB1FEE1FFF1FA217B30737
:101DA000E407F50720F0A21BB30BE40BF50B661F4D
:101DB000771F881F991F1A9469F760957095809511
:101DC00090959B01AC01BD01CF010895EE0FFF1F5F
:101DD000881F8BBF0790F691E02D1994F894FFCFE0
:101DE000720372037203720372037203720372034B
:101DF00032000000000009047303A0035604D1035D
:101E0000AF03C3036E616E00696E66006F76660095
:101E100052756E210D0A0052696768742075702131
:101E20000D0A005269676874210D0A0052696768DB
:101E30007420646F776E210D0A004C65667420640F
:101E40006F776E210D0A004C656674210D0A004CF7
:101E5000656674207570210D0A0053746F70210D32
:101E60000A0053706565645F41203A200053706535
:101E700065645F42203A200053706565645F4320CB
:0E1E80003A200053706565645F44203A2000EC
:00000001FF
